:100000000C94D3010C94BE0E0C941A020C941A0298
:100010000C941A020C941A020C941A020C941A02F0
:100020000C941A020C941A020C9410210C94E421E2
:100030000C94E21B0C941A020C941A020C941A02EF
:100040000C941A020C941A020C941A020C941A02C0
:100050000C941A020C94391C0C941A020C941A0277
:100060000C941A020C941A020C941A020C941A02A0
:100070000C941A020C941A020C941A020C941A0290
:100080000C941A020C941A020C941A020C941A0280
:100090000C941A020C941A020C941A020C941A0270
:1000A0000C941A020C941A020C941A020102E00138
:1000B00002E17A0103E10103E0000102E07A0103B9
:1000C000E00029001E001F002000210022002B005C
:1000D00014001A000800150017002800040016007C
:1000E000070009000A00E1001D001B0006001900BE
:1000F000050000000000E0002C00E300AE002A0034
:1001000027002600250024002300340013001200DD
:100110000C0018001C002E002D000F000E000D001A
:100120000B00E50038003700360010001100000019
:100130000000E2002C002A5DA80035003A003B00D8
:100140003C003D003E0001000100520001000100A2
:1001500001000100500051004F004B002D02010032
:100160000100010001000100010000000000010089
:100170000100010001004C0031003300410040004B
:100180003F004B0030002F004400430042004E006F
:1001900001004F0052005100500001000100010019
:1001A0000100010001000000000001000100010049
:1001B000010000000000000000002A2B28000000C1
:1001C0000000000000000000000000000029000006
:1001D00000002C1E3420212224342627252E362DE3
:1001E0003738271E1F202122232425263333362E7D
:1001F00037381F0405060708090A0B0C0D0E0F10EF
:100200001112131415161718191A1B1C1D2F313033
:10021000232D350405060708090A0B0C0D0E0F10D7
:100220001112131415161718191A1B1C1D2F313013
:10023000354C00000000000000000000000000003D
:1002400000000000000000000000000000000000AE
:100250000000000000007E0F00D4FFFFFFC7000079
:10026000007826034B0065006500620069006F009E
:1002700020004900720069007300200052006500F0
:1002800076002E002000340000000E034B006500B5
:100290006500620069006F000000040309040902A0
:1002A0003B00020100A0FA09040000010301010063
:1002B0000921110100012240000705810308000AFD
:1002C00009040100010300000009211101000122BD
:1002D0007B000705820320000A12011001000000C4
:1002E0000810CB564200040102000105010902A1D9
:1002F0000185020901A10005091901290815002538
:100300000195087501810205010930093115812522
:100310007F95027508810609381581257F9501753D
:10032000088106050C0A38021581257F950175089C
:100330008106C0C005010980A101850319012AB702
:1003400000150126B700950175108100C0050C0944
:1003500001A101850419012AA002150126A0029518
:100360000175108100C005010906A101050719E00A
:1003700029E7150025019508750181029501750889
:1003800081010507190029FF150026FF0095067554
:100390000881000508190129059505750191029547
:1003A0000175039101C011241FBECFEFDAE0DEBF5B
:1003B000CDBF04B603FE27C080919F029091A0029A
:1003C000A091A102B091A2028730904BA740B04B00
:1003D000D1F410929F021092A0021092A1021092EA
:1003E000A20214BE84B7877F84BF0FB6F894A89585
:1003F00080916000886180936000109260000FBE61
:10040000E0E0F8E3099511E0A0E0B1E0E0E6F8E40F
:1004100002C005900D92A83AB107D9F722E0A8EAE8
:10042000B1E001C01D92AF39B207E1F70E944A1E48
:100430000C9406240C94000060E070E0CB010E9454
:10044000C71A0C94D31ACF9389322DE5920761F025
:10045000C1E08A329D4581F4FB01C28181E0CC2359
:1004600071F00E945B1807C0FB01C281CC2321F010
:1004700080E00E94A302C0E08C2FCF9108950E94DB
:100480007C18FACF811108C08AEB90E0611102C09C
:100490008CEA90E00C94DC03813031F489EA61113C
:1004A00001C08AEA0C94E011089581E008950C944B
:1004B000230208950C9459021F93CF93DF9300D029
:1004C00000D00F92CDB7DEB749835A836B8330914A
:1004D000F00189819A8131111DC06623B9F0222370
:1004E000A9F00E944E19182F682F89819A810E94C5
:1004F000F71869817A81812F0F900F900F900F90DC
:100500000F90DF91CF911F910C94F2030E94251957
:10051000182FEFCF0E944E1969817A81EDCFFC012F
:10052000262F408151816281738184810C945C0209
:10053000CF93DF93EC0160E00E948F02BE01DF9158
:10054000CF910C945A02CF93DF93C1E0D0E002C068
:10055000CC0FDD1F8A95E2F78C2F0E94A71ABE01EF
:1005600090E080E0DF91CF910C94F9170E94941AEB
:10057000811102C00E94361B0C94FE050C940106EA
:1005800008950E9461140E94C0022FEF84E39CE052
:10059000215080409040E1F700C000000C949E1C68
:1005A0000F931F93CF93DF93EC0161E00E948F02C2
:1005B0008C01BE010E945702882329F1BE01C801A7
:1005C0000E94190C8823F9F0BE01C8010E946B0C2F
:1005D0008823C9F0BE01C8010E948E0D882399F0BE
:1005E0008A81882339F001158CE5180751F00F3DF9
:1005F0001C4579F0CE01DF91CF911F910F910C94A2
:1006000055020E94C10280E0DF91CF911F910F91AE
:1006100008950E94361BF7CFDF92EF92FF920F935F
:100620001F93CF93DF93E82FF0E0EE54FE4FD4906A
:10063000282F26952695269530E0F901EE5AFD4F94
:100640000491877010E0082E02C0159507950A9452
:10065000E2F701701127F901EE5BFD4FE490F12CF8
:10066000082E02C0F594E7940A94E2F791E0E9229B
:10067000FF24F901EE5CFD4FC491D0E002C0D59596
:10068000C7958A95E2F7C170DD270115110519F0AC
:1006900081EE0E94E110E114F10419F086EE0E944F
:1006A000E1108D2D0E94E011EF2819F086EE0E94D6
:1006B0007311012B19F081EE0E947311CD2B51F0B3
:1006C0008CE2DF91CF911F910F91FF90EF90DF901F
:1006D0000C94E011DF91CF911F910F91FF90EF905B
:1006E000DF900895EF92FF920F931F93CF93DF93C4
:1006F0008C01F62E8AE0E82EF8018491882309F413
:1007000054C0813009F04DC0E8012196FE0184916A
:10071000813091F42196FE0184910E94E0118E01B6
:100720000F5F1F4F8F2D815038F3EFE9FFE03197B6
:10073000F1F700C00000F7CF823039F4E8012296CB
:10074000FE0184910E94E110EACF833039F4E80180
:100750002296FE0184910E947311E1CF8430F9F654
:10076000E8012296FE01249190E080E0FE0131969E
:100770002053330B2A30310548F0019780F2EFE91E
:10078000FFE03197F1F700C00000F7CFE89EA0012D
:10079000E99E500D1124C901840F951F2491EF018A
:1007A000E5CF0E940C03E801BACFDF91CF911F91F2
:1007B0000F91FF90EF90089560E00C9472030895FC
:1007C0000C94DF0381E008950C94E203CF93C82FCB
:1007D0000E94E0038C2FCF910C94E40390E080E022
:1007E00008950895972F70E026E0929F600D711D87
:1007F0001124FB019CE3899FE00DF11D1124EE0FF4
:10080000FF1FEE53FF4F859194910895FC01EE0F69
:10081000FF1FEE59FD4F859194910895CF93DF937B
:100820000E94F2030E942305EC01811520E5920746
:1008300008F042C0811530E4930708F0BDC0883E3F
:10084000910528F5803E910508F09DC0883A9105F4
:1008500088F4853A910508F08FC08130910509F43C
:1008600092C0009709F48FC0049708F08CC0D0E0C4
:10087000C0E089C08F3B910508F489C0805C910974
:10088000C03CD105A0F30E940604EC017CC0811598
:10089000904250F4C11581E0D80708F074C0CD3EF5
:1008A000D10528F3D0656FC0C11590E3D90708F0D2
:1008B00079C0CE019F70E7CF811525E5920758F5E5
:1008C000811534E5930708F0A6C0811542E5940729
:1008D00050F4C11581E5D80708F471C0DC2FCC278E
:1008E000C16FD06A50C0982F969596959E0123703F
:1008F0003327C115D34508F07FC0C1E0D0E002C066
:10090000CC0FDD1F2A95E2F720E2929FC00111244F
:10091000C82BD92B6FC0C11589E5D807A8F4C1151C
:1009200098E5D90708F07CC0C11526E5D20708F084
:100930009ECF8C2F0E94BA05C82FD0E0DC2FCC2789
:10094000CC27DF71D0621FC0C1153AE5D30708F488
:100950006CC0CE0190568115904208F088CF8D2F43
:100960008F710E94BA0590E0982F882788279F7181
:100970009C012C2BE901E6CFC55AD0E0CC59DE4FC3
:10098000C881D0E0D064CE01DF91CF910895C85ADC
:10099000D0E0CC0FDD1FCA5CDE4F0990D881C02D9E
:1009A000D464F1CFCE019927D3FF03C0EC01D86CFA
:1009B000EACFEC01D06CE7CFDF70D06AE4CFCE0194
:1009C000E4E096958795EA95E1F783702C2F2695BC
:1009D0002695237090E2299F90011124382B8C2FAB
:1009E0008370C1E0D0E002C0CC0FDD1F8A95E2F732
:1009F000C22BD32BDC68C7CFC1E0D0E002C0CC0F44
:100A0000DD1F2A95E2F730E2939FC0011124C82B25
:100A1000D92BDA68B8CFD82FCC27C46FD06AB3CF20
:100A2000DC2FCC27C06FD06AAECF8C2F8F700E9486
:100A3000BA0534E0D695C7953A95E1F7CF709C2F6B
:100A4000EC01D069A0CF82389105B1F1B0F48133C7
:100A5000910509F475C048F48932910509F469C01B
:100A60008A32910509F473C008958533910509F41C
:100A700059C08933910501F10895833E9105A9F18B
:100A800038F4803E9105F9F0823E910549F10895D0
:100A9000863E9105A9F1873E9105C9F1843E9105F5
:100AA00019F52091910221FF1FC08091900284FDD1
:100AB00014C087EE90E00895209190022370A1F079
:100AC00080EE90E008952091900220FD47C0309183
:100AD000910230FF09C024FF44C090E080E004C0D0
:100AE0002091900222FDF7CF08952091900222FDDF
:100AF0003BC03091910230FDE3CF24FFF5CFEDCF25
:100B00002091900223FFF0CF24FDE7CFD2CF209198
:100B1000900223FD2CC03091910231FFEECF84EE84
:100B200090E008952091900225FFDECF89E290E0C9
:100B300008952091900225FFD7CF85E390E0089596
:100B40002091900226FFD0CF8AE290E00895209174
:100B5000900226FFC9CF81E390E0089589E390E0F9
:100B6000089583EE90E0089582EE90E0089586EE79
:100B700090E008959091900292FF06C0282F28716E
:100B80002830F9F4877F846093FF06C0282F2871EE
:100B90002831F1F4877E84612091910220FF06C004
:100BA000382F38713830D9F4877F816021FF06C033
:100BB000282F28712831D1F4877E816194FD877EAA
:100BC0000895282F24712430F9F68B7F8860DCCFBC
:100BD000282F2471243101F78B7E8861DDCF382FD7
:100BE0003171313019F78E7F8860E0CF282F217165
:100BF000213121F78E7E8861E1CF08950C94FD05A7
:100C000008950C940006E82FF0E0E458FD4F808131
:100C10000895089580EA8A95F1F7089500C008952F
:100C20000C940A06F894E82FE295EF70F0E031A1F9
:100C3000282F2F7081E090E001C0880F2A95EAF7F5
:100C4000982F9095932391A392A1892B82A37894B6
:100C5000089508950F931F93CF93DF93CDB7DEB719
:100C600060970FB6F894DEBF0FBECDBF0E94FD07A0
:100C700080911001811132C0FE01359686E0DF01BE
:100C80001D928A95E9F781E3898382E38A8382E969
:100C90008B8381EF8C8384EF8D83CE010196E6E018
:100CA000F1E09E01255F3F4FDC014D91CD01419365
:100CB000A217B307C9F726E0E0E3F1E0DE011B96D7
:100CC00001900D922A95E1F7FC01A0E0B1E0CE0180
:100CD000419621912D93E817F907D9F780911001DA
:100CE00095E0811190E09093870285E0891B8093C5
:100CF000860206E011E0F80181918F010E94120640
:100D0000F1E00B301F07B9F700E011E0D8018D9139
:100D10008D010E941206B1E006301B07B9F7E2E729
:100D2000F2E0ACE7B2E08CE792E011921D928E17F0
:100D30009F07D9F785E00E94A3070E94B60260963C
:100D40000FB6F894DEBF0FBECDBFDF91CF911F91DC
:100D50000F910C940708FF920F931F93CF93DF938B
:100D600000D000D00F92CDB7DEB70E94E107F82E79
:100D700060918702882309F450C08E010F5F1F4FD6
:100D800085E0F80111928A95E9F7862F90E0B80185
:100D900084589D4F0E94C40D811122C08091AA01E8
:100DA0008F5F8093AA018630B0F1E0918602F0E077
:100DB000E458FD4FD801CE01069611921D92A81756
:100DC000B907D9F70E94BE028F2D0F900F900F9098
:100DD0000F900F90DF91CF911F910F91FF90089589
:100DE0001092AA01A0918602B0E0A458BD4F9E01C6
:100DF0002A5F3F4FF12C4D91F80191918F014917D6
:100E000031F0AD0141505109FA019083F82E0217DB
:100E1000130789F7D7CFF12CD5CF70E064587D4FF9
:100E20008091860290E084589D4F0E94EF0D0E94B1
:100E30002906CACFAF92BF92CF92DF92EF92FF9274
:100E40000F931F93CF93DF9306E011E082E7E82E24
:100E500082E0F82E9BE0A92E91E0B92EC0E0CC24D0
:100E6000C394D12CF80181918F01F894E82FE29579
:100E7000EF70F0E021A18F70A60102C0440F551F52
:100E80008A95E2F7CA01922F982B91A392A180959F
:100E9000892382A378940E940E06E0E0F1E030E01E
:100EA00020E0D0E04191A42FA295AF70B0E09096E1
:100EB0008C9190E04F7002C0959587954A95E2F726
:100EC00080FD3DC08C2D022E01C0880F0A94EAF7E8
:100ED000D82B2F5F3F4F2630310521F7F80131978E
:100EE00080810E9412060E941006F7018081D817A7
:100EF00041F1D08381E0C82BFFEFEF1AFF0AA01663
:100F0000B10609F0AFCF6091870270E064587D4F61
:100F10002C2F45E082E792E00E94A4070E94AB06D6
:100F2000C11101C0C82F8C2FDF91CF911F910F915C
:100F3000FF90EF90DF90CF90BF90AF90089580E04A
:100F4000C7CF80E0D8CF0895FF920F931F93CF9320
:100F5000DF93F82E092F162FD72FC42F222349F005
:100F600081E08093AD010E94121C9093AC018093AC
:100F7000AB018091AD018823A1F08091AB019091EC
:100F8000AC010E942A1C069760F0EF2DF02FA12FD4
:100F9000BD2FCE0FDF2FD11DEC17FD0741F41092AE
:100FA000AD01DF91CF911F910F91FF900895819135
:100FB0008D93F2CF55985D9889B185FB882780F98C
:100FC00008958091AE01811111C08091D800806197
:100FD0008093D8008AE18A95F1F700C09091D900FA
:100FE000892F817090FF82E08093AE0181E0909123
:100FF000AE01913009F080E008950E94DA078093F5
:1010000010010E94E10781110C94B80D08950E940F
:10101000E107811102C00C94BE0D08958091B501C5
:1010200080FF12C06091160185E0689FB001112415
:10103000759567957595679560387105A8F5611583
:101040007105A1F1862F089581FF09C060911601F5
:1010500085E0689FB001112475956795EDCF60918B
:10106000160182FD0AC08091B4018823D1F09091CD
:10107000150160911601891728F085E0689FB0017D
:101080001124DACF869FB001112485E0869F90015C
:10109000879F300D1124692F70E0C9010E949623AB
:1010A000CBCF65E070E0CECF8FE7089581E0089563
:1010B0008091B50180FF0CC06091120170E07595C0
:1010C0006795759567956115710549F1862F0895A6
:1010D00081FF06C06091120170E075956795F3CFAE
:1010E0006091120182FD0BC09091B3019923A1F090
:1010F0006091110180911201961738F0682F70E00D
:101100006038710500F38FE70895899FC0011124AD
:1011100070E00E949623F4CF61E070E0D7CF81E0C9
:1011200008958D3E31F40E940E0881958093B90197
:1011300008958E3E19F40E940E08F8CF8F3E31F4C8
:101140000E940E0881958093B8010895803F19F49C
:101150000E940E08F8CF893F29F40E945808809316
:10116000BA0108958A3F21F40E9458088195F7CF6B
:101170008B3F31F40E94580881958093BB010895FC
:101180008C3F19F40E945808F8CF9FE0980F9830D0
:1011900070F4815F990B21E030E001C0220F8A9545
:1011A000EAF78091B701822B8093B70108958D3FB4
:1011B00031F48091B50181608093B50108958E3F2F
:1011C00021F48091B5018260F7CF8F3FB9F780910C
:1011D000B5018460F1CF4091B8018D3E59F4809102
:1011E000B90187FF0DC01092B90141110BC01092D7
:1011F000B40108C08E3E81F48091B90118169CF3A9
:10120000442381F08091BA019091BB01892B09F0B0
:101210005AC01092B30108958F3E49F447FFF0CFB2
:101220001092B8018091B9018111ECCFE0CF803FDD
:1012300019F41416ACF3E4CF9091BA01893F29F464
:101240001916F4F61092BA01DBCF8A3F19F497FF12
:10125000D7CFF8CF9091BB018B3F29F497FFD0CF28
:101260001092BB01CDCF8C3F19F41916CCF3C8CF27
:101270009FE0980F983090F4815F990B21E030E067
:10128000B90102C0660F771F8A95E2F7CB018095FE
:101290009091B70189238093B701B2CF8D3F31F48C
:1012A0008091B5018E7F8093B501AACF8E3F21F446
:1012B0008091B5018D7FF7CF8F3F09F0A1CF80914D
:1012C000B5018B7FF0CF08950E94121C9C01909174
:1012D000B8018091B901982B21F03093B20120938D
:1012E000B1019091BA018091BB01982B21F030930C
:1012F000B0012093AF0186EB91E00C94790FEF924F
:10130000FF920F931F93CF93DF9300D000D000D0B4
:10131000CDB7DEB786E0E6EBF1E0DE011196019095
:101320000D928A95E1F7E090B801F090B901009133
:10133000BA011091BB011092B8011092B90110923C
:10134000BA011092BB018E2D8F2991F08091B101CD
:101350009091B2010E942A1CAC019091B401992392
:1013600009F43FC0809117018417150608F447C09F
:10137000802F812B91F08091AF019091B0010E945C
:101380002A1CAC019091B301992309F477C0809194
:1013900013018417150608F47FC08091B80190915D
:1013A000B901892B9091BA01892B9091BB01892BAE
:1013B00011F00E94640986E0FE013196A6EBB1E0CF
:1013C00001900D928A95E1F726960FB6F894DEBF4C
:1013D0000FBECDBFDF91CF911F910F91FF90EF9086
:1013E0000895209118018AE0289F90011124241764
:1013F000350708F0BDCF9F5F9093B40102C09F3FB7
:10140000D1F7EE2059F00E940E089FEF1E140CF445
:1014100091E0899F802D11248093B801FF2059F01D
:101420000E940E089FEF1F140CF491E0899F802DFD
:1014300011248093B9013091B801332309F498CF76
:101440002091B901222309F493CF45EB3403C00165
:101450001124992359F09093B80145EB240390018E
:101460001124332339F03093B90182CF81E0809386
:10147000B801F3CF81E08093B9017ACF20911401B4
:101480008AE0289F900111242417350708F085CFA2
:101490009F5F9093B30102C09F3FD1F7002359F0A3
:1014A0000E9458089FEF10160CF491E0899F802D40
:1014B00011248093BA01112359F00E9458089FEF1C
:1014C00011160CF491E0899F802D11248093BB01AB
:1014D0003091BA01332309F460CF2091BB0122235C
:1014E00009F45BCF45EB3403C0011124992359F073
:1014F0009093BA0145EB240390011124332339F072
:101500003093BB014ACF81E08093BA01F3CF81E0F1
:101510008093BB0142CF86E0E6EBF1E0DF011D9254
:101520008A95E9F71092B4011092B3011092B501B7
:1015300008950C94420280911001811106C087EF3A
:1015400080931A0186EF8093190120911A01A22F2E
:10155000A295AF70B0E091963C9191972F7081E089
:1015600090E0BC01022E01C0660F0A94EAF7462FF4
:101570004095432391964C93919792963C919297E4
:10158000362B92963C93929740911901E42FE29565
:10159000EF70F0E031A14F70042E01C0880F0A9463
:1015A000EAF7982F9095932391A392A1892B82A378
:1015B00090968C9190E002C0959587952A95E2F7D8
:1015C000817020A130E002C0359527954A95E2F759
:1015D00092E020FF90E0892B8093C101909110014F
:1015E00081E098279093BD01891B8093BC010895E9
:1015F000CF93E091C101EE0FEE0F20911A01A22FBF
:10160000A295AF70B0E090968C9190E02F7002C0E0
:10161000959587952A95E2F7817099274091190150
:10162000A42FA295AF70B0E090962C9130E04F704F
:1016300002C0359527954A95E2F7A90141705527D3
:1016400020FF02C042E050E0842BE82BE093C10170
:10165000C091BD01EF70F0E0E959FE4F808190919B
:10166000C001890F8093C00120E0843074F0EC2F1A
:101670000C2E000CFF0BE254FE4F80818F5F8083A5
:1016800060E08C2F0E94990A21E08091C0018D3F7B
:1016900074F4EC2F0C2E000CFF0BE254FE4F8081F3
:1016A0008150808361E08C2F0E94990A21E0809113
:1016B000C001082E000C990B64E070E00E94962394
:1016C0008093C001822FCF910895E091BD01F0E099
:1016D000E254FE4F2081FC0120830895FF920F9376
:1016E0001F93CF93DF93D091BC010D2F10E00254D4
:1016F0001E4FFC01C081F8018081C81BFC2E80E0D8
:101700001F147CF09C2FC7FD90E0C91BC11114C0B1
:101710008823E9F0DF91CF911F910F91FF900C94F6
:10172000C60FFA94F80180818F5F808360E08D2F6F
:101730000E94990A81E0E4CFCF5FF8018081815057
:10174000808361E08D2F0E94990A81E0DFCFDF91D5
:10175000CF911F910F91FF9008950F931F93CF93F7
:10176000DF93C42FD22FFC0182818823C9F04093DC
:10177000C4010E94121C9093C3018093C20180E2B5
:101780008C0F883008F050C0C77081E001C0880F0E
:10179000CA95EAF7DF91CF911F910F910C94E81150
:1017A0001091C401141335C08091C2019091C301FE
:1017B0000E942A1C883C910560F5C0E2CD0F1D17E0
:1017C000B9F080E2810F883040F4177081E001C0E9
:1017D000880F1A95EAF70E94EF11C83048F481E0AB
:1017E0009D2F977001C0880F9A95EAF70E94E81123
:1017F000802F0E94E011C830B8F4D77081E001C09A
:10180000880FDA95EAF7DF91CF911F910F910C9431
:10181000EF1180E28C0F883038F4C77081E001C08E
:10182000880FCA95EAF7EFCFDF91CF911F910F9103
:1018300008950F939C01CB01243F4CE5340759F1E7
:10184000A8F4293DFCE53F0701F12A3D4CE53407AA
:10185000D1F1283D3C4591F406E221EE41EE68EDE0
:101860007CE50E94AD0B80E00F910895263FFCE5DA
:101870003F07E9F0B0F0273F3C45F9F0FC018281D9
:10188000882339F11092C401EFCF07E225EE45EE2F
:1018900069ED7CE5E6CF06E221EE40EE64EF7CE503
:1018A000E0CF07E225EE44EE65EF7CE5DACF06E215
:1018B00021EE42EE66EF7CE5D4CF07E225EE46EE60
:1018C00067EF7CE5CECF08E221E045EE6AED7CE5EE
:1018D000C8CF81E0C9CFCF93DF93EC01FB018281B8
:1018E000882309F419C1C230FCE5DF07C0F1C63115
:1018F0009CE5D90730F09E012B5F3C45293031052E
:1019000070F50E94AC1A9093910280939002C031BE
:10191000ECE5DE0709F4CFC008F05BC0C8308CE509
:10192000D80709F4B6C088F5C430ECE5DE0709F441
:10193000A8C0C0F4C2308CE5D80709F49CC08091DF
:1019400090028260C330DC4509F498C08091900217
:10195000909191020E94BA1A0E94611480E0DF9176
:10196000CF910895809190028061C630ECE5DE074A
:1019700009F484C0809190028860C730DC4508F487
:101980007DC080919002806279C0CC308CE5D80710
:1019900009F489C070F4809190028C60CA30ECE543
:1019A000DE0709F46BC008F478C0809190028E7F46
:1019B00065C0CE308CE5D80709F479C080919002DB
:1019C0008B7FCF30DC4508F459C0809190028F7E28
:1019D00055C0CC3FECE5DE0709F457C030F5C33104
:1019E0008CE5D80709F46FC078F4C131ECE5DE0767
:1019F00009F465C0C231DC4509F0A8CF0E9461142A
:101A0000809190028F773AC0C5318CE5D80709F4F0
:101A100062C008F476C0809191028160CB3FDC45C2
:101A200009F094CF8093910291CFC115FDE5DF07B6
:101A300009F44DC088F4809191028D7FCE3F9CE5E2
:101A4000D90781F3809191028E7FCF3FDC4550F31F
:101A5000809191028360E6CFC230FDE5DF0709F493
:101A600059C008F444C080E0C330DD4509F06ECFB2
:101A70000E94381B6BCF809190028160809390020E
:101A800065CF809190028460F9CF8091910282604D
:101A9000C9CF809190028064F1CF0E94611480913F
:101AA00090028068EBCF809190028D7FE7CF80918C
:101AB0009002877FE3CF809190028F7DDFCF80916E
:101AC00090028F7BDBCF80919002837FD7CF809174
:101AD00091028C7FA7CF8091900282FB992790F989
:101AE00021E0922790FB82F990FB83F9C7CF809188
:101AF0009102982F909591708E7F892B90FB81F9A0
:101B000091CF0E94611490919002892F97FB87F9E1
:101B10008058B4CF81E0ACCF81E021CFCF93DF9369
:101B2000EB0186319C4511F50E94E3199A819923B6
:101B300099F08A7A91E009F490E09093C5018111BF
:101B400009C089E20E94BE190E942F1A80E0DF912D
:101B5000CF91089585E3F6CF8091C501811104C02E
:101B600089E20E94C519F0CF85E3FBCF81E0EFCF7A
:101B700061E070E08BE191E00C946F0E61E070E049
:101B80008BE191E00C94760ECF93DF93D62FC72F85
:101B90000E94100F009709F5ED2FFC2FDC01A553D3
:101BA000BE4F2C912193019685309105B9F780EDB8
:101BB00091E00E946E0B0E94831C6E5F7F4F8F4FDF
:101BC0009F4F6093C7017093C8018093C9019093A0
:101BD000CA0181E0DF91CF91089580E0FBCFCF93E0
:101BE000DF93D62FC72F6091C7017091C8018091F4
:101BF000C9019091CA010E94661CED2FFC2F90E054
:101C000080E02191DC01A553BE4F2C9301968530D5
:101C10009105B9F780ED91E0DF91CF910C94650BC0
:101C20008EE1489B02C08150E1F7489BFECF0895AA
:101C3000589880E28A95F1F7589A0895FC013BE0A4
:101C40003A95F1F798E020E080E031E040E14A95F4
:101C5000F1F7880F489B02C08160232742E04A9534
:101C6000F1F7000040E14A95F1F7915079F790E1E2
:101C70009A95F1F799B132E03A95F1F7000040E119
:101C80004A95F1F7917092272081920F90830895E1
:101C9000EF92FF920F931F93CF93DF930F92CDB7E5
:101CA000DEB719828C017C01E60EF11C0E151F05B2
:101CB00061F481E09981911180E00F90DF91CF91E3
:101CC0001F910F91FF90EF9008950E94100ECE018A
:101CD00001960E941E0EF80181938F01E7CF909329
:101CE000D2018093D101509A589A08959093D201CD
:101CF0008093D1015098589AE89AE9E6F0E0808103
:101D00008C7F808308956150770B91E001C0990F1B
:101D10006A95EAF720E031E0911108C0222391F0A2
:101D2000589A80E28A95F1F758980895492F4823E8
:101D300039F0589A232740E24A95F1F79695ECCF6F
:101D40005898F9CF5898EDCFFF920F931F93CF93E8
:101D5000DF93EC018C01060F111DC017D10731F480
:101D6000DF91CF911F910F91FF900895F9900E94FC
:101D7000180E68E08F2D0E94830EEFCF1F920F92F6
:101D80000FB60F9211242F933F934F935F936F934E
:101D90007F938F939F93AF93BF93CF93DF93EF93F3
:101DA000FF935898509AC091D101D091D2016D8182
:101DB000662321F08E819F810E94A40E0E94180E3E
:101DC00080E18A95F1F758985098589A80E18A9561
:101DD000F1F76A81662309F18B819C810E94480E8C
:101DE000E881F981882311F088E001C082E08083D6
:101DF0000E94100EFF91EF91DF91CF91BF91AF91B3
:101E00009F918F917F916F915F914F913F912F9112
:101E10000F900FBE0F901F901895E881F981E4CFC5
:101E2000CF93DF93C091D101D091D201F894509A11
:101E3000589885E08A95F1F700005098589A80E20A
:101E40008A95F1F7489B0CC0509A589AE881F9811D
:101E500081E08083789481E090E0DF91CF910895D4
:101E60006D81662381F08E819F810E94480E8111D1
:101E70000AC0509A589AE881F98182E08083789468
:101E800082E090E0EACF0E94100E80E28A95F1F79E
:101E90005898509A80E18A95F1F76A81662321F07B
:101EA0008B819C810E94A40E0E94180EE881F9810A
:101EB0001082789490E080E0D0CF9093D801809306
:101EC000D7010895E091D701F091D801309721F022
:101ED0000190F081E02D099480E00895E091D70110
:101EE000F091D801309721F00280F381E02D099420
:101EF0000895E091D701F091D801309739F022E0B0
:101F0000DC012C930480F581E02D09940895209143
:101F1000D5013091D6012817390771F09093D60179
:101F20008093D501E091D701F091D801309721F04D
:101F30000680F781E02D099408952091D301309116
:101F4000D4012817390771F09093D4018093D301FD
:101F5000E091D701F091D801309721F00084F1850C
:101F6000E02D099408950E941E1C6093EC0170936B
:101F7000ED018093EE019093EF016093E80170937F
:101F8000E9018093EA019093EB0108950E941E1CE1
:101F90006093EC017093ED018093EE019093EF015B
:101FA0006093E4017093E5018093E6019093E7016B
:101FB000089585B7806885BF85B7806885BF089517
:101FC000089508950C94E00F08950C94E40F0E9476
:101FD000D90F82E99AE10E94C21C0E94E10F0C9481
:101FE000E20F0C94E107089508950E94091C0E94D5
:101FF0005D1C0E942A060E94C71C0E949B0A0C942A
:10200000E50F9F92AF92BF92CF92DF92EF92FF9235
:102010000F931F93CF93DF93CDB7DEB72A970FB6F9
:10202000F894DEBF0FBECDBF0E94F30F0E94F40FE5
:102030000E941A0781110E94B30F8AEDA82E81E039
:10204000B82E10E000E0902E802F0E940306E82EAC
:10205000F501C1905F01C81609F453C08091660272
:1020600081FD0E940906D12CFF24F394CE248C2DEF
:102070008F2109F441C00E94F10F882399F0DE827C
:102080009F82EF2081E009F480E088870E94121C83
:102090008160782F9A8789874E815F8168858A85DC
:1020A0000E94AA10F801E652FE4F8081F826F082C5
:1020B0000E94F80A81110E94C60F0E947F090E94A7
:1020C000620F9091D901891799F10E94620F809354
:1020D000D9012A960FB6F894DEBF0FBECDBFDF91AF
:1020E000CF911F910F91FF90EF90DF90CF90BF9015
:1020F000AF909F900C94E603D394FF0CF6E0DF12B0
:10210000B6CF0F5F1F4F0A30110509F09CCF8FEF3C
:1021100089838A831B820E94121C8160782F9D8391
:102120008C8349815A816B818D810E94AA10C0CF16
:102130002A960FB6F894DEBF0FBECDBFDF91CF91C8
:102140001F910F91FF90EF90DF90CF90BF90AF90D5
:102150009F900895DF92EF92FF920F931F93CF937A
:10216000DF93CDB7DEB72B970FB6F894DEBF0FBE67
:10217000CDBF7A878B87F42E052F162FE72ED82E0A
:1021800061110E94031A1E821D827E2DEC82DD8267
:102190004F2D502F612F8D2D9E812B960FB6F894C9
:1021A000DEBF0FBECDBFDF91CF911F910F91FF908A
:1021B000EF90DF900C94D716FC01808191810C94F4
:1021C0009019CF93C82F882309F48BC08238C1F4AB
:1021D0000E94620F81FD85C089E30E94BE190E94A2
:1021E0002F1A2FEF81EE94E0215080409040E1F7CC
:1021F00000C0000089E30E94C519CF910C942F1AEA
:102200008338A1F40E94620F80FD6BC083E50E94B9
:10221000BE190E942F1A2FEF81EE94E021508040CA
:102220009040E1F700C0000083E5E5CF8438A1F4D9
:102230000E94620F82FD55C087E40E94BE190E9471
:102240002F1A2FEF81EE94E0215080409040E1F76B
:1022500000C0000087E4CFCF8CEF8C0F813A90F460
:102260006C2F80912301909124010E944F1B8823A1
:1022700029F08C2F0E94C5190E942F1A8C2F0E94C2
:10228000BE19BBCF80E28C0F883048F4C77081E064
:1022900001C0880FCA95EAF70E94E619AECFEBE5B8
:1022A000EC0FE33040F4F0E0EB55FE4F808190E01E
:1022B000CF910C94870FE8E5EC0FE73150F4F0E094
:1022C000EE0FFF1FE958FE4F80819181CF910C9452
:1022D0009D0FCD3E30F08C2F0E949108CF910C9431
:1022E0006409CF910895882309F452C0823871F4AB
:1022F0000E94620F81FF4CC089E30E94BE190E94B8
:102300002F1A89E30E94C5190C942F1A833859F4A7
:102310000E94620F80FF3CC083E50E94BE190E94AC
:102320002F1A83E5EFCF843859F40E94620F82FFA1
:102330002FC087E40E94BE190E942F1A87E4E2CFC3
:102340009CEF980F913AF0F290E2980F983050F489
:10235000877091E001C0990F8A95EAF7892F0E9452
:10236000EC19D2CF9BE5980F933020F490E080E0F9
:102370000C94870F98E5980F973120F490E080E057
:102380000C949D0F8D3E20F00E94EB080C94640984
:1023900008951F93CF93DF93182FEB010E94E11054
:1023A000209731F4812FDF91CF911F910C947311FD
:1023B0008FE99FE00197F1F700C000002197F0CF6F
:1023C00070E060E0893311F460E570E00C94C911AD
:1023D000882321F00E94E6190C942F1A089588236F
:1023E00021F00E94EC190C942F1A0895BF92CF92FD
:1023F000DF92EF92FF920F931F93CF93DF936C01C5
:10240000D62FC72FFC011281058102950F700E9403
:10241000DC19E82E8823A1F0E12E112389F08C2FFE
:10242000807F803429F080E28D0FE12C883040F0ED
:1024300082E00E947A1A0E94DC1991E0E82EE926D7
:10244000BC2EB2949FE0B922EB2DF0E0E85FFB4D8B
:102450000C94AA230C2F0F70C07F11F00295007FFF
:102460001123A9F0002359F080E28D0F883010F07D
:10247000D11109C0802F0E94E6190E942F1A8D2FBA
:102480000E94E11014C0802F0E94F619F6CF8D2F04
:102490000E947311002359F080E28D0F883010F0F4
:1024A000D1112CC0802F0E94EC190E942F1A2B2DC5
:1024B0002850330B2430310520F40E94620F0E9413
:1024C000E603EE2009F49EC10E94D81980FD9AC14E
:1024D000F60112820E94D2190E945B18C6010E9466
:1024E00023140E94D219DF91CF911F910F91FF9079
:1024F000EF90DF90CF90BF900C947C18802F0E94BB
:10250000FC19D3CFFC2FFF70FF2EC07FC03219F013
:10251000F29480EFF822DD2369F0D13049F11123E4
:1025200091F1002351F1F601858180FFA8CF8F70D2
:10253000858323C0112381F0011106C00E94161A61
:102540008F290E94E811B3CF0130C1F70E94161AFB
:102550008F290E941C1AABCF011106C00E94251AB8
:102560008F2D0E94EF11A3CF013009F4A0CFF6CF39
:10257000112329F0063008F09ACF8F2DE2CF0530D5
:1025800008F095CFEDCF002359F3D93349F4FFEF8D
:1025900027EE33E0F15020403040E1F700C000006A
:1025A0008D2F0E94731183CF8C2F86958695837013
:1025B00069F0813009F07BCF8D2F9C2F9370111122
:1025C00002C090E080E00E949D0F71CF8D2F9C2F64
:1025D0009370111102C090E080E00E94870F67CFD6
:1025E0008D2F112329F00E9491080E9464095FCF6A
:1025F0000E94EB08FACF8C2F837009F041C01111B3
:1026000056CF4D2F429546954770440F440F0D2FDE
:102610000F7010E030E020E0042E04C0000F111F06
:10262000221F331F0A94D2F760E070E0CB01D4FF81
:102630000FC06FE070E080E090E004C0660F771F8D
:10264000881F991F4A95D2F760957095809590954F
:10265000C695C695C370602B712B822B932BC2300D
:1026600049F058F4C13019F00E940D1820CF0E9493
:10267000FB171DCF0E941F181ACF0E94F91717CF02
:102680008695112311F08C2F8170882309F40FCFC8
:102690004D2F429546954770440F440F0D2F0F70F4
:1026A00010E030E020E0042E04C0000F111F221FB4
:1026B000331F0A94D2F760E070E0CB01D4FF0FC063
:1026C0006FE070E080E090E004C0660F771F881F25
:1026D000991F4A95D2F76095709580959095C6950B
:1026E000C695C370602B712B822B932BC23049F09F
:1026F00058F4C13019F00E94D218D9CE0E94C018E7
:10270000D6CE0E94E418D3CE0E943518D0CECF701A
:10271000112329F08C2F0E945B188D2F12CF8D2F43
:102720000E94EF118C2F0E947C18C1CED23F89F1FC
:1027300060F4D03FC9F0D13F29F1112309F442C020
:1027400001119DCE8C2F8F7121C0D33F39F1D43F21
:10275000A1F7112369F1CF718C2F0E945B1863E000
:102760008C2F0E94651AA3CE112341F0053008F08A
:102770009ECE8C2F8F710E949F1899CE063008F044
:1027800096CEF7CF8C2F8F71112369F20E945B18C0
:102790008ECE8C2F8F711123C9F3C5CF112329F051
:1027A0008C2F8F710E94461882CE0E9441187FCED6
:1027B00081E00E947A1A023008F479CE82E00E9409
:1027C0007A1A75CE002359F0D93309F0E9CE8FEF8C
:1027D00097EEE3E081509040E040E1F7DFCE8C2FB0
:1027E0008F71A1CF4C2F4F706D2FC6010E94EE0349
:1027F0000E9471175CCE4C2F4F706D2FC6010E9446
:10280000F10355CEDF91CF911F910F91FF90EF9083
:10281000DF90CF90BF9008950F931F93CF93DF93D6
:10282000EC01688179818A810E949A198C010E9449
:10283000F6180E94F817B801CE01DF91CF911F91D1
:102840000F910C94F611CF93DF93EC018B819C8157
:10285000892B29F08881998189238F3F59F4DF9151
:10286000CF910895CE010E940C14CE01DF91CF913B
:102870000C949802CE010E94D0028111F3CF0E94E5
:10288000DC19882361F38A81882349F382E0DF9190
:10289000CF910C947A1A90E080E00E94870F90E02C
:1028A00080E00E949D0F0E94031A0E94131A0E944A
:1028B0002F1A0E948B0A0C9464090E94CC190C9464
:1028C0004B140E94F3190C945D14E92FE295EF70FC
:1028D000E250EE3070F4F0E0E85EFB4D0C94AA2379
:1028E000803F19F020F4883E20F481E00895843F71
:1028F000E1F380E00895883EC0F3813FD1F7F5CF42
:1029000093FB882780F908950E9490190C94651410
:10291000CF93DF9300D000D00F92CDB7DEB70F90EA
:102920000F900F900F900F90DF91CF910895CF935C
:10293000DF9300D000D000D0CDB7DEB726960FB61B
:10294000F894DEBF0FBECDBFDF91CF9108951F93E6
:10295000CF93DF93C091F10116E08091F2018C13C7
:1029600004C0DF91CF911F910895D0E01C9FF0012A
:102970001D9FF00D1124ED50FE4F40815181628169
:102980007381848195810E9497142196C770E5CF49
:1029900040912302509124026091250270912602F9
:1029A00080912702909128020C9497141F93CF9343
:1029B000DF9380912802807FA9F4809125028823EB
:1029C00089F08091F101C091F20160912302709130
:1029D0002402A0912602B0912702D62FD72316E019
:1029E000C81304C0DF91CF911F91089590E0109714
:1029F00011F0DF3F19F401968770F2CF189F900114
:102A0000199F300D1124F901ED50FE4F41814713FC
:102A1000F2CF40814613EFCF42814111ECCF438189
:102A200054814A1B5B0B483C510528F780912802D2
:102A30008F70806180932802F901E850FE4F8081F9
:102A40008F708061808383E292E00E942314DF9183
:102A5000CF911F910C94A714AF92BF92CF92DF92A7
:102A6000EF92FF920F931F93CF93DF93CDB7DEB713
:102A700061970FB6F894DEBF0FBECDBF8C0185E025
:102A8000F801DE011D9601900D928A95E1F7F8019B
:102A900040815181E28083E2C82E82E0D82E60918D
:102AA0002602709127026115710509F461C19091A8
:102AB000230220912402892F82238F3F09F458C1D9
:102AC000A380B480F0902502F501E61BF70BFF20F0
:102AD00009F4FCC080912802382F307FE83CF105D2
:102AE00008F0B2C0311179C0FE2C251323C0941315
:102AF00021C0E1101FC08F708061809328020E9466
:102B0000C814C6010E94231480912802F80185830D
:102B10008F2D61960FB6F894DEBF0FBECDBFDF914B
:102B2000CF911F910F91FF90EF90DF90CF90BF90CA
:102B3000AF900895AB2829F0842F85238F3F09F0AB
:102B400033C180E0F82FF170DF2E80FF3CC0809110
:102B5000F1012091F20136E0821315C04D875E87A6
:102B60008D859E850E949019292F22952F702230E5
:102B7000F0F0243018F59F70F1F0F8019581907F06
:102B8000D1F4D12C1EC090E0389FF001399FF00D98
:102B90001124ED50FE4F6181651306C060816413FE
:102BA00003C062816E110FC001968770D5CF9F70F0
:102BB00011F0882331F3805E883018F3C8010E9439
:102BC0002314FD2CA5CFEE2009F4A2CF809128027A
:102BD000816080932802F12C9BCF251306C09413AB
:102BE00004C0F801EE2009F48DC04D875E878D8505
:102BF0009E850E948414882319F1EE2009F18091AA
:102C00002802803270F0209123023091240238870C
:102C10002F831986BB86AA868C87CE0107960E94D1
:102C2000231486E0F801A3E2B2E001900D928A95A8
:102C3000E1F70E94D6140E94C814FF24F39468CFD1
:102C4000C8010E942314F9CF311113C07A2DB98A1B
:102C5000A88A6E2D89890E94881483E292E00E94DE
:102C6000231486E0F60111928A95E9F70E94C814B0
:102C7000B2CF25130FC094130DC0E1100BC0F801A3
:102C80008583C8010E94231486E0F60111928A957B
:102C9000E9F73ECF4D875E878D859E850E9484141F
:102CA000882371F2EE2061F280912802803208F4CC
:102CB000B8CF20912302309124023A8329831B82CA
:102CC000BD82AC828E83CE010196A9CFE83CF1058E
:102CD00008F041C0FE2CEE2009F4B2CF25132AC023
:102CE000941328C08091280280FD1BC0982F907FEC
:102CF000C1F0F8018583903F31F0982F907F905F6D
:102D00008F70892B8583C8010E94231486E0F80107
:102D1000A3E2B2E001900D928A95E1F70E94C814F7
:102D2000F7CE86E0F801A3E2B2E001900D928A9519
:102D3000E1F7EECE4D875E878D859E850E948414D7
:102D400081116FCF80912802816080932802C80191
:102D50000E942314DDCE7A2DB98AA88A6E2D898926
:102D60000E94881486E0F60111928A95E9F7D6CF81
:102D7000EE2009F465CF4D875E878D859E850E9484
:102D80008414F82E882309F45BCF86E0F801A3E2CF
:102D9000B2E001900D928A95E1F783E292E00E9401
:102DA000DC100E94D614BACF81E08E25CBCE1F93C3
:102DB000CF93DF93CDB7DEB72C970FB6F894DEBF75
:102DC0000FBECDBF4F83588769877A878B879C87D3
:102DD000CE0107960E942C15882369F08A859B8571
:102DE000892B39F04F815885842F85238F3F09F037
:102DF00071C016E05FC086E0FE013796DE011196D5
:102E000001900D928A95E1F78A859B85892B89F33C
:102E100088859F8189238F3F61F32091F20130E003
:102E2000C9010196877099274091F1014817190649
:102E300071F40E9461141092F2011092F10186E087
:102E4000E3E2F2E0DF011D928A95E9F7D2CF96E046
:102E5000929FD001939FB00D1124AD50BE4FFE0143
:102E6000319601900D929A95E1F78093F2010E94BC
:102E7000A714BFCF819FC00111248D509E4F0E9487
:102E80002C158823E9F0E091F1011E9FF001112437
:102E9000ED50FE4F40815181628173818481958123
:102EA0000E9497148091F10190E001968770992714
:102EB0008093F1018091F1019091F2018913DACFB1
:102EC0002C960FB6F894DEBF0FBECDBFDF91CF9129
:102ED0001F91089569857A858B859C850E9497143A
:102EE00088CFEF92FF920F931F93CF93DF938C01C4
:102EF000892B81F0F12CEE24E394E8012196F8016E
:102F00008491843770F4843008F05FC08130B1F070
:102F10008230A1F1DF91CF911F910F91FF90EF903F
:102F20000895853709F44CC008F43DC09CE7980F1C
:102F3000903780F78F770E94731149C00E5F1F4F43
:102F4000FE01849190E2980F983060F48770FE2D16
:102F500001C0FF0F8A95EAF78F2F0E94061A0E9480
:102F60002F1A02C00E94E1108F2D815030F2EFE93C
:102F7000FFE03197F1F700C00000F7CF0E5F1F4F61
:102F8000FE01849190E2980F983050F48770FE2DE6
:102F900001C0FF0F8A95EAF78F2F0E940C1ADFCF2E
:102FA0000E947311E1CF0E5F1F4FFE01C491C1500B
:102FB000D8F28FE99FE00197F1F700C00000F7CF4A
:102FC0000E5F1F4FFE01F490CFCF0E94E1108E01E3
:102FD000CBCF08950C94E9170E94EA17609355022D
:102FE0007093560280935702909358020C944B149E
:102FF00008950C94EC170F931F93009155021091B4
:1030000056022091570230915802602B712B822B6F
:10301000932B1F910F910C94EC170F931F9300911A
:1030200055021091560220915702309158026023A8
:103030007123822393231F910F910C94EC170F930C
:103040001F93009155021091560220915702309122
:10305000580260277127822793271F910F910C94A4
:10306000EC170C94E9170C9431180E9433186093F4
:1030700051027093520280935302909354020C9425
:103080004B1460E070E0CB010C9435180F931F9344
:1030900041E050E060E070E08A019B0104C0000F55
:1030A000111F221F331F8A95D2F7C901B8011F9142
:1030B0000F910C9435180F931F9341E050E060E09E
:1030C00070E004C0440F551F661F771F8A95D2F722
:1030D0008091510290915202A0915302B0915402FA
:1030E0008A019B01082B192B2A2B3B2BC901B80104
:1030F0001F910F910C9435180F931F9341E050E0EE
:1031000060E070E004C0440F551F661F771F8A956A
:10311000D2F7CB01BA01609570958095909500919A
:1031200051021091520220915302309154026023B7
:103130007123822393231F910F910C9435180F93C1
:103140001F9341E050E060E070E004C0440F551F61
:10315000661F771F8A95D2F7809151029091520293
:10316000A0915302B09154028A019B0108271927AC
:103170002A273B27C901B8011F910F910C943518DC
:103180000F931F930091510210915202209153020C
:1031900030915402602B712B822B932B1F910F9136
:1031A0000C9435180F931F93009151021091520205
:1031B0002091530230915402602371238223932380
:1031C0001F910F910C9435180F931F93009151028A
:1031D00010915202209153023091540260277127BE
:1031E000822793271F910F910C9435180895E92F8A
:1031F000EE0FE90FEE0F8E0F982F977041E001C090
:10320000440F9A95EAF786958695869595E0899F6D
:10321000F0011124E75DFD4F30E020E070E05191B6
:10322000DF011197CB01022E02C0969587950A9473
:10323000E2F7817081958527842385278C932F5F02
:103240003F4F2530310559F70895E92FEE0FE90F6B
:10325000EE0F8E0F982F977086958695869525E0B0
:10326000829FF0011124E75DFD4F50E040E080E0D7
:10327000219130E0092E02C0369527950A94E2F795
:1032800021703327042E01C0220F0A94EAF7822B03
:103290004F5F5F4F4530510559F70895BF92CF9268
:1032A000DF92EF92FF920F931F93CF93DF938C01E6
:1032B000C0905102D0905202E0905302F09054021C
:1032C0008091550290915602A0915702B0915802F8
:1032D000C82AD92AEA2AFB2ACFE1D0E0BC2ED7019E
:1032E000C6010C2E04C0B695A795979587950A94AC
:1032F000D2F780FD0EC0219788F7B12C8B2DDF917E
:10330000CF911F910F91FF90EF90DF90CF90BF90E2
:103310000895B8018C2F0E940E04019761F3EECF3F
:10332000CF93DF93EC010E944E19BE01DF91CF9144
:103330000C940E041F93CF93DF93EB019091F00157
:10334000992331F0CB01DF91CF911F910C9490190B
:10335000882379F0CB010E944E19182F682FCE01D7
:103360000E94F718BE01812FDF91CF911F910C941D
:103370000E04CB010E942519182FF4CF682F8091DD
:103380002301909124010C94851B682F80912301C7
:10339000909124010C94871B80912301909124012A
:1033A0000C94891B80915902859585958595089582
:1033B000809159028770089590915902977081E029
:1033C00009F480E008958091650208959091650266
:1033D000892B8093650208958095909165029823CA
:1033E0009093650208951092650208959091640289
:1033F000892B8093640208958095909164029823AC
:10340000909364020895109264020895909163026B
:10341000892B80936302089580959091630298238D
:1034200090936302089510926302089580915A0266
:10343000089508950C94191A90915A02981721F042
:1034400080935A020C941A1A089580915A02882384
:1034500029F010925A0280E00C941A1A0895E09113
:103460002301F0912401809165028083E091230182
:10347000F0912401808190916402892B8083E091F6
:103480002301F0912401808190916302892B808334
:1034900090915A02992381F0E0912301F091240147
:1034A0008081892B808380912301909124010E9447
:1034B0003D1B81110E94251A8091230190912401C6
:1034C0000C946E0F08950C94621A98E0899F9001F5
:1034D0001124622B609359020E945B18809159025B
:1034E0008595859585950C94631A1092590280E014
:1034F0000C94631A90915902809589238093590204
:10350000282F277071F4282F082E000C330B9217E8
:10351000130639F08595859585950E947C180C9445
:10352000751A089580E0089590E080E00E94CC2311
:1035300021E08B3E9E4F09F020E0822F089582E02B
:1035400090E00C94C42383E090E00C94C423682F93
:1035500083E090E00C94D223CF9384E090E00E942B
:10356000C423C82F81E290E00E94C423982F8C2F9F
:10357000CF910895CF93C92F682F84E090E00E94E7
:10358000D2236C2F81E290E0CF910C94D223AB0137
:10359000BC018FE090E00C94E423AB01BC0183E11B
:1035A00090E00C94E42360E070E0CB010C94CD1A21
:1035B0006BEE7EEF90E080E00E94F02360E082E01E
:1035C00090E00E94D22360E083E090E00E94D2234A
:1035D0001092550210925602109257021092580201
:1035E00060E084E090E00E94D22360E081E290E01D
:1035F0000E94D22360E085E090E00E94D22360E048
:1036000086E090E00E94D2236FEF87E090E00E9476
:10361000D22340E050E0BA0188E090E00E94E42329
:1036200060E08DE090E00E94D22340E050E0BA01DB
:1036300088E190E00E94E42360E087E190E00E944E
:10364000D22340E050E0BA018CE190E00E94E423F4
:1036500060E080E290E00E94D22340E050E0BA01B6
:1036600088E190E00E94E4230C941C020C94D81A88
:10367000682F8EE090E00C94D2239C012E5F3F4F88
:10368000AC01485F5F4F80E02417350709F40895C7
:10369000F90191919F019923B9F38F5FF5CF6623CB
:1036A00049F0FC01329608962191261729F0E81777
:1036B000F907D1F780E0089581E008959C01FC01AD
:1036C00032969FEF80E04191461751F09F3F19F4E9
:1036D000411101C0982F8F5F8630A9F79F3F09F4F1
:1036E0000895290F311D97FD3A95F90162830895D8
:1036F000FC01329608962191261303C0DF01119731
:103700001C92E817F907B9F708950C945E1B0C9406
:10371000781B029626E0FC0111922A95E9F708959C
:10372000089508950C94911B80919602843049F17C
:103730000E94921B80E00E94E6031092670288E1DB
:1037400090E020E40FB6F894A895809360000FBE37
:103750002093600083B7817F846083BF83B78160DB
:1037600083BF7894889583B78E7F83BF0FB6F89414
:10377000A89580916000886180936000109260003D
:103780000FBE08950895CF930E94901B0E941A07C0
:103790000E94C21BC0E08C2F0E940306811105C04D
:1037A000CF5FCA30C1F7CF91089581E0FCCF089573
:1037B0000C94D71B0E9461140E94620F0E94E603C2
:1037C0000C94D81B1F921FB61F9211248F939F93A6
:1037D000AF93BF9380916702811113C080918802DB
:1037E00090918902A0918A02B0918B024196A11D0D
:1037F000B11D8093880290938902A0938A02B093AE
:103800008B02BF91AF919F918F911F901FBE1F9010
:10381000189582E084BD93E095BD9AEF97BD8093A3
:103820006E0008952FB7F8948091880290918902D4
:10383000A0918A02B0918B022FBF08952FB7F89400
:10384000609188027091890280918A0290918B0226
:103850002FBF08959C014FB7F894809188029091F2
:103860008902A0918A02B0918B024FBF821B930BF9
:10387000089578941F921FB61F9211248F939F93DF
:10388000AF93BF938091880290918902A0918A02A0
:10389000B0918B020196A11DB11D80938802909377
:1038A0008902A0938A02B0938B02BF91AF919F913E
:1038B0008F911F901FBE1F90189510928C0210922E
:1038C0008D0210928E0210928F020895CF92DF9295
:1038D000EF92FF926B017C010E94E10781110EC003
:1038E0000E941E1CC61AD70AE80AF90AC0928C0266
:1038F000D0928D02E0928E02F0928F02FF90EF90B4
:10390000DF90CF9008950F931F930E94E1078823C3
:1039100021F01F910F910C941E1C0E941E1C0091FF
:103920008C0210918D0220918E0230918F02600FD7
:10393000711F821F931F1F910F91089581E0809343
:10394000E00080E28093D8001092C9008FE19EE4ED
:103950000197F1F700C0000087E090EBDC01809355
:103960009F029093A002A093A102B093A20288E1CB
:103970009CE00FB6F894A895809360000FBE9093DA
:103980006000FFCF9093A9018093A80108950E9441
:10399000941A811102C00E94361B0E949F1A8093C4
:1039A00066020E94AC1A90939102809390020E944A
:1039B000A31A682F70E090E080E00E94F9176091F0
:1039C00051027091520280915302909154020C94D2
:1039D0003318809170020895CF93DF9300D00F9237
:1039E000CDB7DEB790919602943019F589837B8329
:1039F0006A8382E08093E9008FEF9091E800815024
:103A000095FD06C095ED9A95F1F700008111F5CF6F
:103A10008091E80085FF0DC050E040E063E070E079
:103A2000CE0101960E94051F8091E8008E77809359
:103A3000E8000F900F900F90DF91CF910895BC0197
:103A400084E00C94EC1CBC0183E00C94EC1C9C0105
:103A500082E08093E9009FEF8091E800915085FD1E
:103A600006C085ED8A95F1F700009111F5CF8091A0
:103A7000E80085FF0CC050E040E066E070E0C9015E
:103A80000E94051F8091E8008E778093E8000895DA
:103A9000CF93DF93EC0181E08093E9008FEF909169
:103AA000E800815095FD06C095ED9A95F1F700006C
:103AB0008111F5CF8091E80085FF14C050E040E00F
:103AC00068E070E0CE010E94051F8091E8008E77CB
:103AD0008093E80088E0FE01A8E6B2E001900D9234
:103AE0008A95E1F7DF91CF91089580919502811138
:103AF00009C00E9495200E94F2208091E20084601B
:103B00008093E20008951092950208950895089513
:103B1000089542E061EC81E00E94112042E261ECF4
:103B200082E00C94112080919802833009F45FC0E8
:103B300030F48130C1F1823009F49BC008958A309D
:103B400009F487C08B3009F46DC0893009F04EC08C
:103B500080919702813209F049C080919B02909137
:103B60009C02029708F042C08091E800877F809312
:103B7000E8008091E80082FF35C09091F3008091C9
:103B8000F200029729F48091F1008B7F813021F4BB
:103B90008091F100809370028091E8008B77809390
:103BA000E8000C94452080919702813AF9F48091C5
:103BB000E800877F8093E80080919B0290919C02AF
:103BC000892B61F468E088E692E070E00E94541F5F
:103BD0008091E8008B778093E800089560E090E0A2
:103BE00080E0F3CF809196028111C3CF0895809138
:103BF0009702813AD9F780919B0290919C02892B80
:103C0000A9F78091E800877F8093E8008091E80021
:103C100080FFFCCF80912F018093F1008091E8001C
:103C20008E77BDCF80919702813201F780919B0200
:103C300090919C02892BD1F68091E800877F809338
:103C4000E8000E9445208091990280932F010C94F6
:103C5000611480919702813249F68091E800877F54
:103C60008093E8000E94452080919A02809371021F
:103C7000089580919702813A09F0B8CF8091E800C9
:103C8000877F8093E8008091E80080FFFCCF8091DF
:103C90007102C2CF84B7877F84BF0FB6F894A8950E
:103CA00080916000886180936000109260000FBE78
:103CB00080E890E00FB6F8948093610090936100E3
:103CC0000FBE0E94E70F0E9495200E94F220809173
:103CD000E20084608093E20078940E947B230E943B
:103CE000F50F85E291E00E945D0F8091960285308C
:103CF000A9F00E9401100E94F30F0E94F40FF5CF6B
:103D00000E94941B80919402882341F00E94C31B5F
:103D1000882321F00E94EF1E0E9461148091960278
:103D2000853071F30E94DA1BE4CF0C94971E292F83
:103D300033272330310519F168F42130310509F4B6
:103D400044C02230310509F445C090E080E030E005
:103D500020E025C02132310549F122323105A9F791
:103D600080E490E026E633E061157105C1F08BE751
:103D700090E02BEE32E06130710589F0E6CF9927B3
:103D80008130910581F0009729F00297F1F6E2E683
:103D9000F2E002C0EAE9F2E0849190E09F01FA01CA
:103DA000318320830895EAE8F2E0F6CF89E090E0DD
:103DB00020EB32E06115710591F389E090E029EC88
:103DC00032E06130710559F3C0CF82E190E029ED16
:103DD00032E0E5CF8BE390E02EE932E0E0CF80E106
:103DE00089BD82E189BD09B400FEFDCF8091D80074
:103DF0008F7D8093D8008091E00082608093E00006
:103E00008091E00081FDFCCF0895AF92BF92CF92E8
:103E1000DF92FF920F931F93CF93DF936C01EB011F
:103E20008A010E946420F82E811123C0011511051A
:103E300039F0F80180819181C81BD90BC80ED91EB9
:103E4000B12CA12C2097A9F08091E80085FD22C01B
:103E50008091E8008E778093E80001151105A1F0AC
:103E6000F80180819181A80EB91EB182A08285E0FF
:103E7000F82E8F2DDF91CF911F910F91FF90DF9042
:103E8000CF90BF90AF9008950E9464208823D1F214
:103E9000F82EEFCFF60181916F018093F100219709
:103EA000FFEFAF1ABF0ACECFFC0180919D02909127
:103EB0009E0286179707A0F06115710529F490916D
:103EC000E8009E779093E80090E06115710551F449
:103ED000911108C08091E80082FF34C080E008950D
:103EE000BC01F2CF809196028823C1F18530C1F1E7
:103EF0008091E80083FD30C08091E80082FDEACF28
:103F00008091E80080FFE1CF8091F3002091F200E2
:103F1000382F6115710519F02830310558F091E0FE
:103F20002830310509F090E02091E8002E772093A9
:103F3000E800CBCF81918093F100615071092F5F30
:103F40003F4FE7CF80919602882341F0853041F0C2
:103F50008091E80083FFBECF81E0089582E008955C
:103F600083E00895FC0180919D0290919E02861746
:103F70009707A0F06115710529F48091E8008E770C
:103F80008093E80090E06115710551F4911108C02B
:103F90008091E80082FF35C080E00895BC01F2CF37
:103FA000809196028823C9F18530C9F18091E8009B
:103FB00083FD31C08091E80082FDEACF8091E80066
:103FC00080FFE1CF8091F3002091F200382F61153E
:103FD000710519F02830310558F091E0283031058D
:103FE00009F090E08091E8008E778093E800CBCFD5
:103FF00084918093F1003196615071092F5F3F4F9A
:10400000E6CF80919602882341F0853041F080917F
:10401000E80083FFBDCF81E0089582E0089583E04A
:104020000895982F973028F08F708093E90081E0F1
:1040300008959093E900242F762F50E0981731F0DF
:104040007091EC002091ED005091F00021FD02C034
:104050009F5FE8CF3091EB003E7F3093EB003091D3
:10406000ED003D7F3093ED003091EB0031603093F7
:10407000EB007093EC002093ED005093F000209142
:10408000EE0027FDE5CF80E008958091970287FF3D
:1040900013C08091E80082FF06C08091E8008B7712
:1040A0008093E80004C0809196028111F2CF0895B8
:1040B000809196028823D9F38091E80080FFF8CFA1
:1040C0008091E8008E77ECCF2091E4003091E500FC
:1040D00095E6A9012091EC00822F817020FF06C097
:1040E0008091E80080FF06C080E008952091E800FC
:1040F00022FD1AC080919602882389F0853089F0CC
:104100008091EB0085FD0FC02091E4003091E50027
:1041100042175307F9F29150E1F684E0089582E0E6
:10412000089583E0089581E008950E9403210E948C
:104130000B21E0EEF0E0808181608083E8EDF0E02B
:1041400080818F77808319BCA7EDB0E08C918E7F42
:104150008C9380818F7E80831092950208950F93B7
:104160001F93CF93DF930E9403210E940B21C8ED80
:10417000D0E088818F778883888180688883888170
:104180008F7D888319BC1092960210929202109231
:1041900094021092930200EE10E0F80180818B7F70
:1041A000808388818160888342E060E080E00E94B3
:1041B0001120E1EEF0E080818E7F8083E2EEF0E07E
:1041C000808181608083808188608083F801808124
:1041D0008E7F8083888180618883DF91CF911F915A
:1041E0000F910895E8EDF0E080818F7E8083E7ED08
:1041F000F0E080818160808384E082BF81E08093F1
:1042000095020C94AF20E8EDF0E080818E7F8083F2
:104210001092E20008951092DA001092E1000895E1
:104220001F920F920FB60F9211242F933F934F932B
:104230005F936F937F938F939F93AF93BF93EF930E
:10424000FF938091E10082FF0BC08091E20082FF2A
:1042500007C08091E1008B7F8093E1000E947A2368
:104260008091DA0080FF19C08091D80080FF15C0CE
:104270008091DA008E7F8093DA008091D90080FFF0
:1042800096C080E189BD82E189BD09B400FEFDCF01
:1042900081E0809396020E94751D8091E10080FF6D
:1042A00019C08091E20080FF15C08091E2008E7FEE
:1042B0008093E2008091E20080618093E20080912F
:1042C000D80080628093D80019BC85E08093960264
:1042D0000E94871D8091E10084FF2BC08091E20045
:1042E00084FF27C080E189BD82E189BD89B5982F0F
:1042F000917080FFFBCF8091D8008F7D8093D80094
:104300008091E1008F7E8093E1008091E2008F7EBA
:104310008093E2008091E20081608093E2008091CE
:104320009202882309F449C084E0809396020E9497
:10433000881D8091E10083FF29C08091E20083FF06
:1043400025C08091E100877F8093E10082E0809327
:104350009602109292028091E1008E7F8093E1009C
:104360008091E2008E7F8093E2008091E200806184
:104370008093E20042E060E080E00E9411208091A2
:10438000F00088608093F0000E94861DFF91EF91FD
:10439000BF91AF919F918F917F916F915F914F915D
:1043A0003F912F910F900FBE0F901F90189519BC41
:1043B000109296020E94831D70CF8091E30087FDCA
:1043C00093E090939602B3CF1F920F920FB60F9285
:1043D00011242F933F934F935F936F937F938F930A
:1043E0009F93AF93BF93CF93DF93EF93FF93D091BE
:1043F000E900DF708091EC00C82FC17080FDC0E83B
:104400001092E9008091F000877F8093F00078940B
:104410000E9428221092E9008091F0008860809329
:10442000F000CD2BCF70C093E900FF91EF91DF91A9
:10443000CF91BF91AF919F918F917F916F915F913C
:104440004F913F912F910F900FBE0F901F90189595
:104450001F93CF93DF93CDB7DEB7AA970FB6F8942B
:10446000DEBF0FBECDBF87E992E02091F100FC01D5
:104470002193CF01F2E08F399F07B9F70E94931D76
:104480008091E80083FF1EC180919702909198026D
:104490009A3008F017C1E92FF0E0EA5DFB4D0C946B
:1044A000AA23803899F0823809F00CC180919B02D0
:1044B0008F70873008F006C18093E9008091EB008F
:1044C00085FB882780F91092E90006C0809193024D
:1044D00090919402911182609091E800977F90935F
:1044E000E8008093F1001092F1008091E8008E774F
:1044F000E5C0882309F4D3C0823009F0E3C080917D
:1045000099028111D6C080919B028F702FEF280FE6
:10451000263008F0D7C08093E9002091EB0020FFFF
:10452000C8C0933031F48091EB0080628093EB003F
:10453000C0C09091EB0090619093EB0021E030E0DF
:1045400001C0220F8A95EAF72093EA001092EA0050
:104550008091EB008860EACF8111B4C0109199027C
:104560001F778091E3008078812B8093E300809116
:10457000E800877F8093E8000E9445208091E80052
:1045800080FFFCCF8091E30080688093E30082E0AD
:10459000111183E08093960295C08058823008F014
:1045A00091C08091990290919A028C3D23E09207EC
:1045B000A1F583E08A838AE289834FB7F894DE010C
:1045C000139620E03EE051E2E32FF0E050935700D5
:1045D000E49120FF03C0E295EF703F5FEF708E2FF4
:1045E00090E0EA30C0F0C7968D939D932F5F243101
:1045F00059F74FBF8091E800877F8093E8006AE217
:1046000070E0CE0101960E94541F8091E8008B77E4
:104610008093E80057C0C096E7CF60919B027091ED
:104620009C02AE014F5F5F4F0E94951EBC01892B1B
:1046300009F448C09091E800977F9093E800898141
:104640009A810E94B21FE1CF8038E1F58091E800A5
:10465000877F8093E800809192028093F10045CF9C
:10466000811130C090919902923060F58091E800FC
:10467000877F8093E800909392020E94452080916A
:104680009202882311F084E005C08091E30087FD49
:10469000FACF81E0809396020E94891D13C0809119
:1046A0009902813079F481E0933009F080E08093C1
:1046B00094021092E9008091E800877F8093E800DF
:1046C0000E9445208091E80083FF0AC08091E800A5
:1046D000877F8093E8008091EB0080628093EB00FD
:1046E000AA960FB6F894DEBF0FBECDBFDF91CF9173
:1046F0001F9108950895CF93809196028823A1F089
:10470000C091E900CF709091EC00892F817090FDED
:1047100080E8C82B1092E9008091E80083FD0E9498
:104720002822CF70C093E900CF91089597FB072E00
:1047300016F4009407D077FD09D00E94B02307FC3F
:1047400005D03EF4909581959F4F089570956195A1
:104750007F4F0895EE0FFF1F0590F491E02D09940F
:10476000AA1BBB1B51E107C0AA1FBB1FA617B70797
:1047700010F0A61BB70B881F991F5A95A9F78095B3
:104780009095BC01CD010895F999FECF92BD81BDF0
:10479000F89A992780B50895A8E1B0E042E050E08A
:1047A0000C94F823262FF999FECF92BD81BDF89A7B
:1047B000019700B4021639F01FBA20BD0FB6F89465
:1047C000FA9AF99A0FBE08950396272F0E94D323D1
:1047D0000E94D223252F0E94D323242F0C94D3236D
:1047E0000196272F0E94D3230C94D223DC01CB0106
:1047F000FC01F999FECF06C0F2BDE1BDF89A3196F1
:1048000000B40D9241505040B8F70895F894FFCF8E
:104810002A122A1282128212D412F012571257123E
:10482000FB12871396139613F21357125712FB13AA
:1048300070147014791479147B1479147914791420
:104840007014701480147914791480145122792210
:10485000622379226223AC22CD22622324233023D7
:10486000F1F49392379431F0F5F6F7000000000070
:10487000012808641E140A321E3332C60104C7011F
:1048800006CB015B02E91C481D271D231D1F1D01CE
:1048900094979337F033E200E900EA00B500B600E0
:1048A000B700CD008301CC008A019201940121025E
:1048B000230224022502260227022A02B300B400A2
:1048C0006F00700081828300FF0100010000FFFF84
:1048D0000000010001FF00E200E900EA00B500B6B7
:1048E00000B700CD008301CC008A01920194012120
:1048F00002230224022502260227022A02B300B460
:08490000006F0070008182834A
:00000001FF
